S011000072613864315F6569742E73726563D2
S3150200000020040022D5120002AD110002D112000214
S31502000010D1120002D1120002D1120002D112000244
S31502000020000000000000000000000000D1120002E3
S31502000030D112000200000000D1120002D112000209
S31502000040F10700026107000281080002CD080002E2
S31502000050010A000291090002850A0002C90A000289
S309020000601040000044
S315020000680348044B834202D0034B03B11847704737
S31502000078040000220400002200000000064B074983
S31502000088C91A891048BF0131491003D0044B0BB174
S3150200009801481847704700BF0400002204000022E6
S315020000A80000000010B5064C237843B9FFF7D8FFC5
S315020000B8044B13B10448AFF300800123237010BD2B
S315020000C8500400220000000084A2000308B5054B74
S315020000D81BB105490548AFF30080BDE80840FFF7A4
S315020000E8CDBF00BF000000005404002284A2000312
S315020000F8F8B590F9005004461DB1013001F02BFA0B
S31502000108451C064B9F681E682A4621463046BB6830
S3150200011898470828F8D000B100BEF8BD9C15000221
S315020001282DE9F04F354989B0354800F0CDFD00B1CB
S3150200013800BE344BD3E9011218681268904700B121
S3150200014800BE002425462646DFF8B4802E4F2A46EE
S315020001584FF48371404600F0D7FC3846FFF7C8FFD4
S3150200016800200A22DFF8A4B085F001050DF1040C7F
S3150200017804F10109A646ABFB0413411CDB088246BF
S31502000188C8B203EB8301A4EB41013031BEF1090F7A
S315020001981C460CF8011B2ED9013AEBD109239A46C3
S315020001A840F001E0013301A904AA0B4413F8011D2A
S315020001B802F8011B0FF007C00A210D240AF10202F8
S315020001C800F120030AF1030A08A850FA82F26B44E6
S315020001D850FA8AFA04A803F8104C02F8101C0AF816
S315020001E8106CFFF785FF4FF47A714FF4FA7000F03E
S315020001F895FF4C46ABE7431ED2E700BFDC1500026B
S315020002086C0400229C15000280150002CDCCCCCCD1
S31502000218022800D070470249024800F055BD00BFC7
S31502000228DC1500026C04002208B5FFF779FF0020EE
S3150200023808BD00BF03460020C3E90512704700BF88
S31502000248844610B4006A836823F440138360DCF89A
S315020002582040A36C5800FCD5A36823F01003A360C2
S31502000268DCF82040237FC3F30010DB06FAD4CCE97E
S315020002780312A36843F01013A3605DF8044B70479A
S3150200028884460020CCE90A32CCF82410704700BF15
S31502000298034670B400251E6A2846B26822F444143E
S315020002A824F01104B460DD601C6A096822F4401265
S315020002B821611B6A9A6070BC704700BF4FF0FF331A
S315020002C80020C1E9003370478B0784461DD5026AB0
S315020002D8936823F440139360026A936C5800FCD522
S315020002E8936823F010039360DCF82000037FC3F3BE
S315020002F80012DB06FAD41046CCF81020CB0703D539
S3150200030800231846CCF8183070470620F6E700BFD7
S315020003180346002210B49C6910460C609A615DF887
S31502000328044B70470620704730B40124164D530912
S3150200033802F01F0C203304FA0CF445F82340BFF3ED
S315020003484F8FBFF36F8F114B02F5C65C53F82C40E3
S3150200035824F4803443F82C4053F82C300901002A3F
S31502000368C9B207DB0A4B154485F8001343F8220085
S3150200037830BC7047074B02F00F0423441976044B2E
S3150200038843F8220030BC704700E100E000600040FC
S31502000398F0040022FCEC00E0F0B5846A85B005465C
S315020003A80F4694466E46B4B194E80F0086E80F00ED
S315020003B8EB6920461B78A760236084F804C0EB6AC1
S315020003C8E3606B6A9847AC6A1CB196E80F0084E84A
S315020003D80F0005B0F0BD3446EAE700BFF8B5394B61
S315020003E842689A426BD10446026A936823F4401320
S315020003F89360026A936823F010039360026A137F7C
S31502000408C3F30015DB06FAD40121E3692E4A93F9F0
S315020004180730580903F01F03203001FA03F342F8A4
S315020004282030BFF34F8FBFF36F8FE36993F909301B
S31502000438580903F01F0301FA03F3203042F820306B
S31502000448BFF34F8FBFF36F8F206A836823F480331D
S315020004588360E36993F90530580903F01F0301FA2B
S3150200046803F3203042F82030BFF34F8FBFF36F8F6C
S31502000478E36993F90B30580903F01F0301FA03F3F2
S31502000488203042F82030BFF34F8FBFF36F8FEFF360
S31502000498108681F310884FF00043E7690B4A97F8F4
S315020004A800C0506823FA0CF303435360536896203E
S315020004B800F034FE86F3108865602846F8BD0720EA
S315020004C8F8BD00BF4249435300E100E00030204036
S315020004D80620704700222DE9F04101270B780270A9
S315020004E803F5800303F556531B020362C1614B6988
S315020004F80D4643628B690446C0E90A238378CE69AE
S3150200050867F3010383704B78934214BF3A4602227B
S31502000518837862F30103837091F90B20897AFFF7D6
S3150200052803FF95F905202979FFF7FEFE95F90720BD
S31502000538A979FFF7F9FE95F90920297AFFF7F4FE5A
S31502000548EFF3108887F310884FF000412A787A4B28
S31502000558D1405A6822EA01025A605B6896203946F7
S3150200056800F0DCFD88F310884FF48062236A9A60F3
S315020005786B78E978EA691B02890301F4804103F47E
S3150200058840730B4311785068090601F040710B431A
S315020005985178C90389B20B43517B490501F400110D
S315020005A80B43216A43F480534B611378991EB9426F
S315020005B840F2BB800368216A0B61117BAB7801F0BC
S315020005C8030141F0300133B1022B14BF4FF44073DB
S315020005D84FF480731943002093781B0703F0805366
S315020005E80B43216ACB60216A0123886140F21F21ED
S315020005F8287883400B4202D0236A50495962002167
S31502000608937BD07B127C00F01F0003F0010343EAC0
S31502000618002302F01F02206A43EA02430363C4E985
S315020006280311C4E90511226A758945482581906630
S31502000638E269444B92F9052002F5C65053F8205058
S3150200064861F3104543F8205053F82000BFF35F8F3B
S31502000658012002F01F055209920002F1604202F5DA
S31502000668614200FA05F5C2F880511560E26992F90D
S315020006780B2002F5C65553F8256061F3104643F878
S31502000688256053F82550BFF35F8F02F01F05520904
S31502000698920002F1604200FA05F502F56142C2F8DB
S315020006A880511560E26992F9072002F5C65553F89A
S315020006B8256061F3104643F8256053F82550BFF3C9
S315020006C85F8F02F01F055209920002F1604200FA9A
S315020006D805F502F56142C2F880511560E26992F9A0
S315020006E8092002F5C65553F8256061F3104643F80A
S315020006F8256053F82530BFF35F8F53099B0002F03C
S315020007081F0203F16043904003F56143C3F8800179
S3150200071818600D4A236A9A60226A137FDB07FCD5A2
S315020007280A4B00206360BDE8F0810949022B094B98
S3150200073818BF0B463FE700BF0030204000001F1FCE
S315020007481000079D0060004011040100424943530E
S3150200075804FF00FF24FF00FFEFF30383103B204A48
S315020007685BB203F5C65152F8210020F4803042F8F4
S31502000778210052F821201B4A52F82300C3691B693B
S3150200078883B1036903B17047026A0021936823F4AF
S31502000798801343F400139360436AC160C3B1802295
S315020007A8FFF7FABD0369026A002BEED08378C168A7
S315020007B803F00303022B0CD00B7813718278D0E96D
S315020007C8031302F003029B1A1144C0E90313D9E783
S315020007D870470B8823F4DC439BB25360EEE700BFF5
S315020007E800600040F004002210B582B0EFF30383E4
S315020007F8103B1F4A5BB203F5C65152F8210020F49A
S31502000808803042F8210052F821201A4A52F8234031
S31502000818A27802F00303022B236A0CBF196819781F
S31502000828A3690CBFC1F30801C9B2019143B9636A4E
S31502000838B3B10422204602B0BDE81040FFF7ACBDB2
S3150200084802F0030201A9606900F078FED4E90521E5
S31502000858A37803F003031A44C91AC4E9052109B1A6
S3150200086802B010BD636A002BFAD00122E2E700BF8C
S3150200087800600040F004002210B5EFF303830F4A2C
S31502000888103B5CB252F82400026A936823F44013C0
S3150200089823F010039360436A1BB102220021FFF77B
S315020008A87BFD074A04F5C65352F8231021F480311A
S315020008B842F8231052F8233010BD00BFF00400227C
S315020008C80060004038B5EFF303831D4A103B5CB263
S315020008D852F824008378056A03F00303022B0CBF3F
S315020008E829682978AA6C08BFC1F30801C2F3007304
S315020008F8C2F3006C4FEA031343EA4C13C2F3C06215
S3150200090843EAC20C18BFC9B2DB06624604D5AB6C11
S315020009181B0458BF4CF04002AB6E43F0C853AB669B
S31502000928436A0BB1FFF738FD064A04F5C65352F877
S31502000938231021F4803142F8231052F8233038BDAF
S31502000948F00400220060004030B5436A85B00446D0
S315020009588C4601ADABB193E8070085E807006268EB
S315020009681846127883F804C01A60A26A9A60236A43
S315020009789847636A1BB195E8070083E8070005B044
S3150200098830BD2B46EBE700BFEFF30383103B184A53
S315020009985BB203F5C65152F8210020F4803042F8C2
S315020009A8210052F82120134A52F823305A69D9698C
S315020009B88A420AD2D3E90201A9B18A5C62F0FF022D
S315020009C842605A69D96901325A618A4200D070472F
S315020009D81A69002AFBD19A68936823F4801343F4B0
S315020009E80013936070476FF0FF024260E9E700BFA9
S315020009F800600040F004002210B4EFF30383103BBA
S31502000A081C4A5BB203F5C65152F8210020F4803025
S31502000A1842F8210052F82120174A52F82330596920
S31502000A28DA6991420AD2D3E90202F2B1525C62F061
S31502000A38FF0242605969DA6901315961996991423D
S31502000A4807D298681A6900684C1C9C615054D3E90D
S31502000A580612914206D19A68936823F4881343F4DE
S31502000A68001393605DF8044B70476FF0FF02426013
S31502000A78E0E700BF00600040F004002210B5EFF383
S31502000A8803830D4A103B5CB252F8240001218268A6
S31502000A98936823F4401323F011039360FFF754FF7E
S31502000AA8064A04F5C65352F8231021F4803142F857
S31502000AB8231052F8233010BDF004002200600040D3
S31502000AC838B5EFF303834FF080750D4A103B5CB2DD
S31502000AD852F8240004218268936823F4441393602D
S31502000AE883689D66FFF730FF064A04F5C65352F837
S31502000AF8231021F4803142F8231052F8233038BDEE
S31502000B08F004002200600040002001238242CAB29B
S31502000B1803FA02F39AB24FEA034308BF1A460B0ACC
S31502000B285B0103F1804303F580039A60704700BFB7
S31502000B382DE9F84F0388DBB14FF0000A80464FF0E3
S31502000B480109DFF8D4B00024314D4FEACA07D8F8B4
S31502000B58043035F8022BD919898891420AD0013412
S31502000B68032CF4D1B8F800300AF1010A5345EAD841
S31502000B78BDE8F88FDB5909FA04F603F0B853B3F166
S31502000B88807F244BF6B293F84C2C12D0324230D1E5
S31502000B9804F120021BF81230DB09E0D01BF81230F0
S31502000BA8012123F08003C8200BF8123000F0B6FAB0
S31502000BB8D5E7324210D004F120021BF81230DB09C5
S31502000BC8CDD11BF81230012143F08003C8200BF85F
S31502000BD8123000F0A3FAC2E7012000F04BFB0D4BDE
S31502000BE8012093F84C2C324383F84C2C00F012FB6C
S31502000BF8E1E7012000F03EFB064B012093F84C2C5E
S31502000C0822EA060283F84C2C00F004FBC0E700BF78
S31502000C185C16000200E0014000202040F8B50646B6
S31502000C28FFF786FFEFF31082012383F31088234F21
S31502000C383B681BB9402022490B7508753B6801338E
S31502000C483B6082F31088338800211BB31D4D08E0F0
S31502000C581B01134445F82340328801318BB29A426C
S31502000C6818D9736853F8314003EBC1029288E0033E
S31502000C784FEA1223D2B2EBD502EB031055F820E065
S31502000C8824F4803C2EF4803E45F820E01B0145F80A
S31502000C9820C0DEE7EFF31082012383F310883B6856
S31502000CA813B13B68013B3B603B681BB98020044992
S31502000CB80B75087582F31088F8BD00BFE804002298
S31502000CC8000D40400008404008B5034B0360084643
S31502000CD8FFF7A4FF002008BD54524F501E4A92F84F
S31502000CE8263092F82420DBB202F00F02A2F10801A4
S31502000CF803292BD8DFE801F020160C021749184AF7
S31502000D0851F82330A2FB03231B09164A13607047C6
S31502000D181249134A51F82330A2FB0323114ADB086E
S31502000D28136070470D490E4A51F82330A2FB03237C
S31502000D380C4A9B08136070470849094A51F8233040
S31502000D48A2FB0323074A5B0813607047034951F85D
S31502000D582330D340D9E700BF00E001402004002237
S31502000D68ABAAAAAA1C050022704700BF4AF2035181
S31502000D78F8B53F4B3F4AB3F8FA53A3F8FA13536848
S31502000D880646DB03ADB223D4EFF31087012484F3BE
S31502000D981088536843F4803353605368962021467B
S31502000DA800F0BCF987F31088314B334993F8752064
S31502000DB893F86D3002F00F0203F0070351F8220090
S31502000DC8072B50D8DFE803F00606064D4B45474980
S31502000DD80024E9E7012202FA03F3B0FBF3F001214A
S31502000DE8264BA3FB0030800C884000F097F9204A76
S31502000DF892F8753043F0400382F8753092F87530F0
S31502000E08DB09FBD073781A4982F86D30337843F0E0
S31502000E18400382F87530337882F8753091F8753068
S31502000E28DB09FBD17CB1EFF31084012181F3108831
S31502000E38104B5A6822F480325A605B68962000F09A
S31502000E486DF984F310880A4B45F42545A3F8FA533D
S31502000E58F8BD0323C1E70523BFE70A23BDE7082335
S31502000E68BBE70623B9E71022083B02FA03F3B4E705
S31502000E7800E00140003020402004002283DE1B43AC
S31502000E884AF203500123F0B56D496E4AA1F8FA03F6
S31502000E9883B0938093889BB2002BFBD101244FF435
S31502000EA800409FED636B9FED647B674B6749C3E91F
S31502000EB807115961148083ED007F1861FFF70EFF51
S31502000EC8092206215E4B83F8501A83F8A22093F86A
S31502000ED8002C22B993F8013C980700F0A480584CDC
S31502000EE894F8003C002B00F093800022544B83F8C0
S31502000EF8012C83F8002C0023514A82F8323092F8EA
S31502000F083C301907FBD545F6017040F21111002352
S31502000F184B4C1085A2F84C1082F82A3094F83C30D3
S31502000F289B06FBD5042201250526464B484F1A7710
S31502000F38276284F8245084F82660FFF7CFFE2946F4
S31502000F48962000F0EBF8002384F824302762FFF796
S31502000F58C5FE2946962000F0E1F884F82660FFF7D8
S31502000F68BDFE4AF201523B4B1A80BFF35F8F1D72D8
S31502000F78BFF35F8F4FF42541374A1980128884F8E8
S31502000F88305001A884F8525084F85350ADF8042022
S31502000F98FFF7ECFE94F85530294A43F0400384F8EB
S31502000FA8553092F85530DB09FBD0C523022082F86A
S31502000FB8540082F8553092F85530214903F0BF03A0
S31502000FC882F8553091F85530DB09FBD191F8573044
S31502000FD81B4A43F0400381F8573092F85730DB0931
S31502000FE8FBD0C523022082F8560082F8573092F8C1
S31502000FF85730134903F0BF0382F8573091F8573038
S31502001008DB09FBD14FF42543A1F8FA3303B0F0BD4F
S315020010180121C82084F8001C00F080F894F8003CEE
S31502001028012BFBD161E74FF47A70FFF79DFE62E769
S31502001038006CDC0200127A0000800000002D3101EB
S3150200104800E0014000C101402004002200389C1C37
S315020010583223123100200040E417000238B5002579
S31502001068284C0121C82084F8285000F057F884F843
S31502001078245094F82430002BFBD194F824302149CB
S3150200108843F0020384F8243091F82430C3F3400075
S315020010989B07F9D41B4A81F8220092F8223003F002
S315020010A8FF00002BF9D192F84030164960F3C713B6
S315020010B882F8403091F84030DB09FBD191F84200C2
S315020010C8104A63F3C71081F8420092F84230DB09EE
S315020010D8FBD192F844000B4963F3C71082F8440027
S315020010E891F84430C3F3C014DB09F9D1012000F0AA
S315020010F8C1F8054B012083F84C4CBDE8384000F096
S3150200110889B800BF0020204000E00140704700BFB8
S31502001118A0F101000028FBD1704700BF1E4B1F4AF1
S315020011281B6800FB01F1934213D302F1854202F5D3
S31502001138071203F5742302F6834203F23F23A2FB46
S3150200114803239B0CA3FB01314FF0FF30E1B1FFF7FC
S31502001158DFBF4FF47A7210B4114C4FF0FF30B4FB74
S31502001168F3F3A1FB02C434B9BCFBF3F080B15DF81A
S31502001178044BFFF7CDBFB1FBF3F1A1FB0212002A24
S31502001188F5D1084620B1F2E71846002BDFD17047A1
S315020011985DF8044B704700BF1C05002200127A0056
S315020011A800CA9A3B70B500240D4B0E4EB3F80021C7
S315020011B8B3F82051ADB2154025FA04F3DB0704D57E
S315020011C856F82430E0B203B198470134102CF3D113
S315020011D8034AA2F81051B2F820311D42FBD170BD64
S315020011E800C00040A80400220022082310B40748C1
S315020011F8074C30F8021F02F5C65C013209B144F801
S315020012082C10013BF5D15DF8044B70471E160002FF
S3150200121800600040EFF31081012383F31088124B1C
S3150200122833F8102092B22AB133F81020013A92B25A
S3150200123823F8102033F810309BB293B910B40B4A36
S315020012480B4CB2F8FA3334F810009BB243F4254338
S3150200125823EA0003A2F8FA3381F310885DF8044BF7
S31502001268704781F3108870471005002200E001409C
S31502001278E817000230B4EFF31081012383F31088D4
S315020012880E4A32F810309BB26BB90D4C0D4DB4F8BC
S31502001298FA3335F810C09BB243EA0C0343F42543EC
S315020012A89BB2A4F8FA3332F8103001339BB222F813
S315020012B8103081F3108830BC704700BF1005002239
S315020012C800E00140E817000200BE704708B500F0CA
S315020012D837F8FEF7A9FFFEE7F8B5174F05463E6849
S315020012E8A6B17C6806EB460604EB860602E00C34D9
S315020012F8B4420BD0637AAB42F9D1D4E90002002199
S31502001308121A0C3400F02FF9B442F3D1BE6896B122
S31502001318FC6804EB061602E01034A6420BD0637B87
S31502001328AB42F9D1D4E90002A168121A103400F0CE
S3150200133805F9A642F3D1F8BD6416000200000000C2
S31502001348F8B5744A744B5A61BFF34F8FBFF36F8F68
S315020013581B6803F47002B2F5801F00F0B48013F420
S31502001368600F00F09C806D4A136843F00403136013
S31502001378BFF34F8FBFF36F8F4FF47002684B664C03
S315020013880020C4F88820A360FEF742FF0025FFF775
S3150200139877FD4AF202514FF42542624B0120A3F827
S315020013A8FA1383F8B05AA3F8FA23FEF731FF5E4B15
S315020013B883F30A88594B1A68920704D5A268B2F1D0
S315020013C8007F00F084800020FFF786FFFFF786FC87
S315020013D8FFF744FE0320FFF74DFF00234FF00C0EE4
S315020013E81C464EF001E0514903F10C0221F8224055
S315020013F801330FF007C80320FFF70CFF0320FFF79E
S3150200140839FF4B4B03205C609C60DC601C61454CD9
S31502001418FFF700FFD4F8D8339B0727D5D4F8D8337B
S315020014280220FEF7F5FE0120FFF756FFBFF34F8FA6
S31502001438BFF36F8F0024384BC3F85042BFF34F8F68
S31502001448BFF36F8F3B4B3C4D5B1BA3424FEAA30690
S3150200145805DD55F8043B01349847A642F9DCFFF747
S31502001468C3FEBDE8F8400020FFF750BE94F81031DD
S31502001478002BD5D00120FFF7FDFE94F8103103F0BA
S31502001488C003802BF9D10023264A84F8103192F83A
S3150200149810313F2BFBD80120FFF7BCFEC0E71F4ADD
S315020014A8136843F004031360BFF34F8FBFF36F8FC4
S315020014B84FF0E022936843F480339360BFF34F8F73
S315020014C8BFF36F8F58E719077FF44DAF47E701213E
S315020014D81A695869C2F3C302093201FA02F30026ED
S315020014E80027DB0843F005C0E5E802670FF005C0F0
S315020014F8C0F3C303093301FA03F34FF00052DB08C2
S3150200150843F007C0AFF30080E2E802670FF005C0B8
S3150200151859E700BF01020E0000ED00E000E001E01D
S315020015280000000200E0014020000022000D4040B9
S3150200153800402040501800024C1800020A44431E7C
S31502001548914200D1704710B511F8014B914203F848
S31502001558014FF9D110BD034613F8012B002AFBD11E
S31502001568181A0138704702440346934200D170475D
S3150200157803F8011BF9E7000052413844312055416E
S315020015885254393A204C45443120626C696E6B20BC
S315020015980000000074040022A8150002301600029A
S315020015A8090200000C000C010C020C0300000000EA
S315020015B8000000000000000000000000C81500023C
S315020015C800010000000000220F00FFFF00000001DA
S315020015D80100000007000000E815000200000000F4
S315020015E805000000060100000000010508020000CF
S315020015F80000010509020000000001000A020000BD
S31502001608000001000B0200000000010406040000AD
S315020016180000010400070000630164016501660118
S315020016282401250126012701DD0400023D020002EC
S315020016384902000299020002C5020002D102000212
S3150200164889020002E5030002190300022D030002C3
S31502001658D90400020204030404040000080000007E
S31502001668841700020F00000094160002030000000F
S315020016787C16000200000068000000680000008076
S3150200168800000080200000222000002200000068DE
S3150200169800000068000000900001090D00000068C3
S315020016A800000068000000270001020D0000006823
S315020016B800000068600000020001010D00000080C1
S315020016C80000008000000090000109080000008068
S315020016D800000080000000270001020800000080C8
S315020016E800000080600000020001010800000000FE
S315020016F8000000000000009001010905000000003A
S31502001708000000000000002701000205000000009A
S315020017180000000060000002010001050000002030
S3150200172800000020000000900101090400000020CA
S31502001738000000200000002701000204000000202B
S3150200174800000020600000020100010400000022DF
S315020017580000002200000090000109030000002298
S3150200176800000022000000270000020300000022F9
S315020017780400002260000002000001030000006865
S31502001788000000680001000D000000680000006803
S315020017980001000D00000080000000800001000822
S315020017A80000008000000080000100080000000020
S315020017B800000000010000050000002000000020D3
S315020017C80100000404000022200000220000000399
S315020017D85004002220050022000000030502000032
S315020017E80100020008001000200000004275696C22
S315020017F87420776974682052656E65736173204137
S315020018086476616E63656420466C657869626C65A8
S3150200181820536F667477617265205061636B6167E6
S31502001828652076657273696F6E20362E322E300009
S31102001838362E322E3000000000000206A0
S30902001844F8B500BF2C
S30902001848F8B500BF28
S3090200184CD5000002B9
S30902001850AD000002DD
S30D020018540AFDFF7F01000000FE
S3090300A100FFFFFFFF56
S3090300A104FFFFFFFF52
S3090300A200FFFFFFFD57
S3090300A28000000000D1
S705020012D511
